{
  "contractName": "BloceryTokenSC",
  "abi": [
    {
      "constant": true,
      "inputs": [],
      "name": "mintingFinished",
      "outputs": [
        {
          "name": "",
          "type": "bool"
        }
      ],
      "payable": false,
      "stateMutability": "view",
      "type": "function"
    },
    {
      "constant": true,
      "inputs": [],
      "name": "name",
      "outputs": [
        {
          "name": "",
          "type": "string"
        }
      ],
      "payable": false,
      "stateMutability": "view",
      "type": "function"
    },
    {
      "constant": false,
      "inputs": [
        {
          "name": "_spender",
          "type": "address"
        },
        {
          "name": "_value",
          "type": "uint256"
        }
      ],
      "name": "approve",
      "outputs": [
        {
          "name": "",
          "type": "bool"
        }
      ],
      "payable": false,
      "stateMutability": "nonpayable",
      "type": "function"
    },
    {
      "constant": true,
      "inputs": [],
      "name": "totalSupply",
      "outputs": [
        {
          "name": "",
          "type": "uint256"
        }
      ],
      "payable": false,
      "stateMutability": "view",
      "type": "function"
    },
    {
      "constant": false,
      "inputs": [
        {
          "name": "_from",
          "type": "address"
        },
        {
          "name": "_to",
          "type": "address"
        },
        {
          "name": "_value",
          "type": "uint256"
        }
      ],
      "name": "transferFrom",
      "outputs": [
        {
          "name": "",
          "type": "bool"
        }
      ],
      "payable": false,
      "stateMutability": "nonpayable",
      "type": "function"
    },
    {
      "constant": false,
      "inputs": [
        {
          "name": "_to",
          "type": "address"
        },
        {
          "name": "_amount",
          "type": "uint256"
        }
      ],
      "name": "mint",
      "outputs": [
        {
          "name": "",
          "type": "bool"
        }
      ],
      "payable": false,
      "stateMutability": "nonpayable",
      "type": "function"
    },
    {
      "constant": false,
      "inputs": [
        {
          "name": "_spender",
          "type": "address"
        },
        {
          "name": "_subtractedValue",
          "type": "uint256"
        }
      ],
      "name": "decreaseApproval",
      "outputs": [
        {
          "name": "",
          "type": "bool"
        }
      ],
      "payable": false,
      "stateMutability": "nonpayable",
      "type": "function"
    },
    {
      "constant": true,
      "inputs": [
        {
          "name": "_owner",
          "type": "address"
        }
      ],
      "name": "balanceOf",
      "outputs": [
        {
          "name": "",
          "type": "uint256"
        }
      ],
      "payable": false,
      "stateMutability": "view",
      "type": "function"
    },
    {
      "constant": true,
      "inputs": [],
      "name": "decimal",
      "outputs": [
        {
          "name": "",
          "type": "uint8"
        }
      ],
      "payable": false,
      "stateMutability": "view",
      "type": "function"
    },
    {
      "constant": false,
      "inputs": [],
      "name": "finishMinting",
      "outputs": [
        {
          "name": "",
          "type": "bool"
        }
      ],
      "payable": false,
      "stateMutability": "nonpayable",
      "type": "function"
    },
    {
      "constant": true,
      "inputs": [],
      "name": "owner",
      "outputs": [
        {
          "name": "",
          "type": "address"
        }
      ],
      "payable": false,
      "stateMutability": "view",
      "type": "function"
    },
    {
      "constant": true,
      "inputs": [],
      "name": "symbol",
      "outputs": [
        {
          "name": "",
          "type": "string"
        }
      ],
      "payable": false,
      "stateMutability": "view",
      "type": "function"
    },
    {
      "constant": false,
      "inputs": [
        {
          "name": "_to",
          "type": "address"
        },
        {
          "name": "_value",
          "type": "uint256"
        }
      ],
      "name": "transfer",
      "outputs": [
        {
          "name": "",
          "type": "bool"
        }
      ],
      "payable": false,
      "stateMutability": "nonpayable",
      "type": "function"
    },
    {
      "constant": false,
      "inputs": [
        {
          "name": "_spender",
          "type": "address"
        },
        {
          "name": "_addedValue",
          "type": "uint256"
        }
      ],
      "name": "increaseApproval",
      "outputs": [
        {
          "name": "",
          "type": "bool"
        }
      ],
      "payable": false,
      "stateMutability": "nonpayable",
      "type": "function"
    },
    {
      "constant": true,
      "inputs": [
        {
          "name": "_owner",
          "type": "address"
        },
        {
          "name": "_spender",
          "type": "address"
        }
      ],
      "name": "allowance",
      "outputs": [
        {
          "name": "",
          "type": "uint256"
        }
      ],
      "payable": false,
      "stateMutability": "view",
      "type": "function"
    },
    {
      "constant": false,
      "inputs": [
        {
          "name": "newOwner",
          "type": "address"
        }
      ],
      "name": "transferOwnership",
      "outputs": [],
      "payable": false,
      "stateMutability": "nonpayable",
      "type": "function"
    },
    {
      "inputs": [],
      "payable": false,
      "stateMutability": "nonpayable",
      "type": "constructor"
    },
    {
      "anonymous": false,
      "inputs": [
        {
          "indexed": true,
          "name": "user",
          "type": "address"
        }
      ],
      "name": "eventSendEther",
      "type": "event"
    },
    {
      "anonymous": false,
      "inputs": [
        {
          "indexed": true,
          "name": "to",
          "type": "address"
        },
        {
          "indexed": false,
          "name": "amount",
          "type": "uint256"
        }
      ],
      "name": "Mint",
      "type": "event"
    },
    {
      "anonymous": false,
      "inputs": [],
      "name": "MintFinished",
      "type": "event"
    },
    {
      "anonymous": false,
      "inputs": [
        {
          "indexed": true,
          "name": "previousOwner",
          "type": "address"
        },
        {
          "indexed": true,
          "name": "newOwner",
          "type": "address"
        }
      ],
      "name": "OwnershipTransferred",
      "type": "event"
    },
    {
      "anonymous": false,
      "inputs": [
        {
          "indexed": true,
          "name": "owner",
          "type": "address"
        },
        {
          "indexed": true,
          "name": "spender",
          "type": "address"
        },
        {
          "indexed": false,
          "name": "value",
          "type": "uint256"
        }
      ],
      "name": "Approval",
      "type": "event"
    },
    {
      "anonymous": false,
      "inputs": [
        {
          "indexed": true,
          "name": "from",
          "type": "address"
        },
        {
          "indexed": true,
          "name": "to",
          "type": "address"
        },
        {
          "indexed": false,
          "name": "value",
          "type": "uint256"
        }
      ],
      "name": "Transfer",
      "type": "event"
    },
    {
      "constant": false,
      "inputs": [
        {
          "name": "_receiver",
          "type": "address"
        }
      ],
      "name": "sendEtherToUser",
      "outputs": [],
      "payable": true,
      "stateMutability": "payable",
      "type": "function"
    },
    {
      "constant": false,
      "inputs": [
        {
          "name": "_receiver",
          "type": "address"
        },
        {
          "name": "_amount",
          "type": "uint256"
        }
      ],
      "name": "initUserToken",
      "outputs": [],
      "payable": false,
      "stateMutability": "nonpayable",
      "type": "function"
    },
    {
      "constant": false,
      "inputs": [
        {
          "name": "_manager",
          "type": "address"
        },
        {
          "name": "_amount",
          "type": "uint256"
        }
      ],
      "name": "buyProducerToken",
      "outputs": [],
      "payable": false,
      "stateMutability": "nonpayable",
      "type": "function"
    },
    {
      "constant": false,
      "inputs": [
        {
          "name": "_manager",
          "type": "address"
        },
        {
          "name": "_goodsNo",
          "type": "uint256"
        },
        {
          "name": "_amount",
          "type": "uint32"
        }
      ],
      "name": "payProducerDeposit",
      "outputs": [],
      "payable": false,
      "stateMutability": "nonpayable",
      "type": "function"
    },
    {
      "constant": false,
      "inputs": [
        {
          "name": "_goodsNo",
          "type": "uint256"
        },
        {
          "name": "_amount",
          "type": "uint32"
        }
      ],
      "name": "payManagerDeposit",
      "outputs": [],
      "payable": false,
      "stateMutability": "nonpayable",
      "type": "function"
    },
    {
      "constant": false,
      "inputs": [
        {
          "name": "_orderNo",
          "type": "uint256"
        },
        {
          "name": "_producer",
          "type": "address"
        },
        {
          "name": "_manager",
          "type": "address"
        },
        {
          "name": "_goodsNo",
          "type": "uint32"
        },
        {
          "name": "_price",
          "type": "uint32"
        },
        {
          "name": "_deposit",
          "type": "uint32"
        },
        {
          "name": "_fee",
          "type": "uint32"
        },
        {
          "name": "_consumerReward",
          "type": "uint32"
        }
      ],
      "name": "orderGoods",
      "outputs": [],
      "payable": false,
      "stateMutability": "nonpayable",
      "type": "function"
    },
    {
      "constant": false,
      "inputs": [
        {
          "name": "_orderNo",
          "type": "uint256"
        },
        {
          "name": "_orderPenalty",
          "type": "uint256"
        }
      ],
      "name": "finishDelivery",
      "outputs": [],
      "payable": false,
      "stateMutability": "nonpayable",
      "type": "function"
    },
    {
      "constant": false,
      "inputs": [
        {
          "name": "_orderNo",
          "type": "uint256"
        },
        {
          "name": "_goodsNo",
          "type": "uint256"
        }
      ],
      "name": "rewardCustomerNotDelivery",
      "outputs": [],
      "payable": false,
      "stateMutability": "nonpayable",
      "type": "function"
    },
    {
      "constant": false,
      "inputs": [
        {
          "name": "_goodsNo",
          "type": "uint256"
        }
      ],
      "name": "returnDepositFinal",
      "outputs": [],
      "payable": false,
      "stateMutability": "nonpayable",
      "type": "function"
    },
    {
      "constant": false,
      "inputs": [],
      "name": "kill",
      "outputs": [],
      "payable": false,
      "stateMutability": "nonpayable",
      "type": "function"
    },
    {
      "constant": true,
      "inputs": [],
      "name": "getManagerTotalDeposit",
      "outputs": [
        {
          "name": "",
          "type": "uint256"
        }
      ],
      "payable": false,
      "stateMutability": "view",
      "type": "function"
    },
    {
      "constant": true,
      "inputs": [],
      "name": "getManagerTotalPurchase",
      "outputs": [
        {
          "name": "",
          "type": "uint256"
        }
      ],
      "payable": false,
      "stateMutability": "view",
      "type": "function"
    },
    {
      "constant": true,
      "inputs": [
        {
          "name": "_goodsNo",
          "type": "uint256"
        }
      ],
      "name": "getGoodsDepositInfo",
      "outputs": [
        {
          "name": "",
          "type": "address"
        },
        {
          "name": "",
          "type": "uint32"
        },
        {
          "name": "",
          "type": "bool"
        }
      ],
      "payable": false,
      "stateMutability": "view",
      "type": "function"
    },
    {
      "constant": true,
      "inputs": [
        {
          "name": "_goodsNo",
          "type": "uint256"
        }
      ],
      "name": "getGoodsTotalPaidDeposit",
      "outputs": [
        {
          "name": "",
          "type": "uint256"
        }
      ],
      "payable": false,
      "stateMutability": "view",
      "type": "function"
    },
    {
      "constant": true,
      "inputs": [
        {
          "name": "_orderNo",
          "type": "uint256"
        }
      ],
      "name": "getOrderInfo",
      "outputs": [
        {
          "name": "",
          "type": "address"
        },
        {
          "name": "",
          "type": "address"
        },
        {
          "name": "",
          "type": "uint32"
        },
        {
          "name": "",
          "type": "uint32"
        },
        {
          "name": "",
          "type": "uint32"
        },
        {
          "name": "",
          "type": "uint32"
        },
        {
          "name": "",
          "type": "uint32"
        },
        {
          "name": "",
          "type": "bool"
        },
        {
          "name": "",
          "type": "bool"
        }
      ],
      "payable": false,
      "stateMutability": "view",
      "type": "function"
    },
    {
      "constant": true,
      "inputs": [
        {
          "name": "_user",
          "type": "address"
        }
      ],
      "name": "getBalanceOf",
      "outputs": [
        {
          "name": "",
          "type": "uint256"
        }
      ],
      "payable": false,
      "stateMutability": "view",
      "type": "function"
    },
    {
      "constant": true,
      "inputs": [
        {
          "name": "_goodsNo",
          "type": "uint256"
        }
      ],
      "name": "getGoodsRemainDeposit",
      "outputs": [
        {
          "name": "",
          "type": "uint256"
        }
      ],
      "payable": false,
      "stateMutability": "view",
      "type": "function"
    }
  ],
  "bytecode": "0x60806040526000600360146101000a81548160ff0219169083151502179055506040805190810160405280601281526020017f616c7068612d426c6f63657279546f6b656e0000000000000000000000000000815250600490805190602001906200006c929190620003ba565b506040805190810160405280600a81526020017f616c7068612d424c43540000000000000000000000000000000000000000000081525060059080519060200190620000ba929190620003ba565b506012600660006101000a81548160ff021916908360ff160217905550624c4b40600955348015620000eb57600080fd5b5033600360006101000a81548173ffffffffffffffffffffffffffffffffffffffff021916908373ffffffffffffffffffffffffffffffffffffffff16021790555033600660016101000a81548173ffffffffffffffffffffffffffffffffffffffff021916908373ffffffffffffffffffffffffffffffffffffffff1602179055506200018e336402540be40062000195640100000000026401000000009004565b5062000469565b6000600360009054906101000a900473ffffffffffffffffffffffffffffffffffffffff1673ffffffffffffffffffffffffffffffffffffffff163373ffffffffffffffffffffffffffffffffffffffff16141515620001f457600080fd5b600360149054906101000a900460ff161515156200021157600080fd5b62000236826001546200039d6401000000000262002eae179091906401000000009004565b6001819055506200029d826000808673ffffffffffffffffffffffffffffffffffffffff1673ffffffffffffffffffffffffffffffffffffffff168152602001908152602001600020546200039d6401000000000262002eae179091906401000000009004565b6000808573ffffffffffffffffffffffffffffffffffffffff1673ffffffffffffffffffffffffffffffffffffffff168152602001908152602001600020819055508273ffffffffffffffffffffffffffffffffffffffff167f0f6798a560793a54c3bcfe86a93cde1e73087d944c0ea20544137d4121396885836040518082815260200191505060405180910390a28273ffffffffffffffffffffffffffffffffffffffff16600073ffffffffffffffffffffffffffffffffffffffff167fddf252ad1be2c89b69c2b068fc378daa952ba7f163c4a11628f55a4df523b3ef846040518082815260200191505060405180910390a36001905092915050565b60008183019050828110151515620003b157fe5b80905092915050565b828054600181600116156101000203166002900490600052602060002090601f016020900481019282601f10620003fd57805160ff19168380011785556200042e565b828001600101855582156200042e579182015b828111156200042d57825182559160200191906001019062000410565b5b5090506200043d919062000441565b5090565b6200046691905b808211156200046257600081600090555060010162000448565b5090565b90565b61331f80620004796000396000f3006080604052600436106101a1576000357c0100000000000000000000000000000000000000000000000000000000900463ffffffff16806304baed5e146101a657806305d2035b146101dc57806306fdde031461020b578063095ea7b31461029b57806318160ddd146103005780631972a9d31461032b57806323b872dd1461035857806333811c4b146103dd5780633b008a771461041457806340c10f191461045157806341c0e1b5146104b657806343d858ce146104cd57806347f8febe1461052a5780634d568e04146105775780635712b20d146105b85780635c0950631461060557806366188463146106305780636ec301261461069557806370a08231146106cc57806376809ce3146107235780637d64bcb4146107545780638da5cb5b1461078357806395d89b41146107da57806395de11fe1461086a5780639b96eece146108ab578063a2aeb1fb14610902578063a9059cbb146109bf578063be52185d14610a24578063d311636b14610a4f578063d73dd62314610b64578063dd62ed3e14610bc9578063f2fde38b14610c40578063fa27589414610c83575b600080fd5b6101da600480360381019080803573ffffffffffffffffffffffffffffffffffffffff169060200190929190505050610d0e565b005b3480156101e857600080fd5b506101f1610dc7565b604051808215151515815260200191505060405180910390f35b34801561021757600080fd5b50610220610dda565b6040518080602001828103825283818151815260200191508051906020019080838360005b83811015610260578082015181840152602081019050610245565b50505050905090810190601f16801561028d5780820380516001836020036101000a031916815260200191505b509250505060405180910390f35b3480156102a757600080fd5b506102e6600480360381019080803573ffffffffffffffffffffffffffffffffffffffff16906020019092919080359060200190929190505050610e78565b604051808215151515815260200191505060405180910390f35b34801561030c57600080fd5b50610315610f6a565b6040518082815260200191505060405180910390f35b34801561033757600080fd5b5061035660048036038101908080359060200190929190505050610f74565b005b34801561036457600080fd5b506103c3600480360381019080803573ffffffffffffffffffffffffffffffffffffffff169060200190929190803573ffffffffffffffffffffffffffffffffffffffff169060200190929190803590602001909291905050506110ed565b604051808215151515815260200191505060405180910390f35b3480156103e957600080fd5b5061041260048036038101908080359060200190929190803590602001909291905050506114a7565b005b34801561042057600080fd5b5061044f60048036038101908080359060200190929190803563ffffffff16906020019092919050505061185a565b005b34801561045d57600080fd5b5061049c600480360381019080803573ffffffffffffffffffffffffffffffffffffffff16906020019092919080359060200190929190505050611880565b604051808215151515815260200191505060405180910390f35b3480156104c257600080fd5b506104cb611a66565b005b3480156104d957600080fd5b50610528600480360381019080803573ffffffffffffffffffffffffffffffffffffffff16906020019092919080359060200190929190803563ffffffff169060200190929190505050611afd565b005b34801561053657600080fd5b50610575600480360381019080803573ffffffffffffffffffffffffffffffffffffffff16906020019092919080359060200190929190505050611b1d565b005b34801561058357600080fd5b506105a260048036038101908080359060200190929190505050611b2c565b6040518082815260200191505060405180910390f35b3480156105c457600080fd5b50610603600480360381019080803573ffffffffffffffffffffffffffffffffffffffff16906020019092919080359060200190929190505050611b49565b005b34801561061157600080fd5b5061061a611b59565b6040518082815260200191505060405180910390f35b34801561063c57600080fd5b5061067b600480360381019080803573ffffffffffffffffffffffffffffffffffffffff16906020019092919080359060200190929190505050611b63565b604051808215151515815260200191505060405180910390f35b3480156106a157600080fd5b506106ca6004803603810190808035906020019092919080359060200190929190505050611df4565b005b3480156106d857600080fd5b5061070d600480360381019080803573ffffffffffffffffffffffffffffffffffffffff1690602001909291905050506121a5565b6040518082815260200191505060405180910390f35b34801561072f57600080fd5b506107386121ed565b604051808260ff1660ff16815260200191505060405180910390f35b34801561076057600080fd5b50610769612200565b604051808215151515815260200191505060405180910390f35b34801561078f57600080fd5b506107986122c8565b604051808273ffffffffffffffffffffffffffffffffffffffff1673ffffffffffffffffffffffffffffffffffffffff16815260200191505060405180910390f35b3480156107e657600080fd5b506107ef6122ee565b6040518080602001828103825283818151815260200191508051906020019080838360005b8381101561082f578082015181840152602081019050610814565b50505050905090810190601f16801561085c5780820380516001836020036101000a031916815260200191505b509250505060405180910390f35b34801561087657600080fd5b506108956004803603810190808035906020019092919050505061238c565b6040518082815260200191505060405180910390f35b3480156108b757600080fd5b506108ec600480360381019080803573ffffffffffffffffffffffffffffffffffffffff1690602001909291905050506123f7565b6040518082815260200191505060405180910390f35b34801561090e57600080fd5b506109bd60048036038101908080359060200190929190803573ffffffffffffffffffffffffffffffffffffffff169060200190929190803573ffffffffffffffffffffffffffffffffffffffff169060200190929190803563ffffffff169060200190929190803563ffffffff169060200190929190803563ffffffff169060200190929190803563ffffffff169060200190929190803563ffffffff169060200190929190505050612409565b005b3480156109cb57600080fd5b50610a0a600480360381019080803573ffffffffffffffffffffffffffffffffffffffff169060200190929190803590602001909291905050506125c8565b604051808215151515815260200191505060405180910390f35b348015610a3057600080fd5b50610a396127e7565b6040518082815260200191505060405180910390f35b348015610a5b57600080fd5b50610a7a600480360381019080803590602001909291905050506127f1565b604051808a73ffffffffffffffffffffffffffffffffffffffff1673ffffffffffffffffffffffffffffffffffffffff1681526020018973ffffffffffffffffffffffffffffffffffffffff1673ffffffffffffffffffffffffffffffffffffffff1681526020018863ffffffff1663ffffffff1681526020018763ffffffff1663ffffffff1681526020018663ffffffff1663ffffffff1681526020018563ffffffff1663ffffffff1681526020018463ffffffff1663ffffffff1681526020018315151515815260200182151515158152602001995050505050505050505060405180910390f35b348015610b7057600080fd5b50610baf600480360381019080803573ffffffffffffffffffffffffffffffffffffffff16906020019092919080359060200190929190505050612a17565b604051808215151515815260200191505060405180910390f35b348015610bd557600080fd5b50610c2a600480360381019080803573ffffffffffffffffffffffffffffffffffffffff169060200190929190803573ffffffffffffffffffffffffffffffffffffffff169060200190929190505050612c13565b6040518082815260200191505060405180910390f35b348015610c4c57600080fd5b50610c81600480360381019080803573ffffffffffffffffffffffffffffffffffffffff169060200190929190505050612c9a565b005b348015610c8f57600080fd5b50610cae60048036038101908080359060200190929190505050612df2565b604051808473ffffffffffffffffffffffffffffffffffffffff1673ffffffffffffffffffffffffffffffffffffffff1681526020018363ffffffff1663ffffffff16815260200182151515158152602001935050505060405180910390f35b662386f26fc100008173ffffffffffffffffffffffffffffffffffffffff1631101515610d3a57600080fd5b8073ffffffffffffffffffffffffffffffffffffffff166108fc349081150290604051600060405180830381858888f19350505050158015610d80573d6000803e3d6000fd5b508073ffffffffffffffffffffffffffffffffffffffff167f774f4050461151d4bd0811ddce0f4df584a15979d2ed7dc834aa3163676a018860405160405180910390a250565b600360149054906101000a900460ff1681565b60048054600181600116156101000203166002900480601f016020809104026020016040519081016040528092919081815260200182805460018160011615610100020316600290048015610e705780601f10610e4557610100808354040283529160200191610e70565b820191906000526020600020905b815481529060010190602001808311610e5357829003601f168201915b505050505081565b600081600260003373ffffffffffffffffffffffffffffffffffffffff1673ffffffffffffffffffffffffffffffffffffffff16815260200190815260200160002060008573ffffffffffffffffffffffffffffffffffffffff1673ffffffffffffffffffffffffffffffffffffffff168152602001908152602001600020819055508273ffffffffffffffffffffffffffffffffffffffff163373ffffffffffffffffffffffffffffffffffffffff167f8c5be1e5ebec7d5bd14f71427d1e84f3dd0314c0f7b2291e5b200ac8c7c3b925846040518082815260200191505060405180910390a36001905092915050565b6000600154905090565b60008082610f80613218565b600a6000838152602001908152602001600020606060405190810160405290816000820160009054906101000a900473ffffffffffffffffffffffffffffffffffffffff1673ffffffffffffffffffffffffffffffffffffffff1673ffffffffffffffffffffffffffffffffffffffff1681526020016000820160149054906101000a900463ffffffff1663ffffffff1663ffffffff1681526020016000820160189054906101000a900460ff1615151515815250509050806040015115151561104957600080fd5b600a6000868152602001908152602001600020935060018460000160186101000a81548160ff021916908315150217905550600c6000868152602001908152602001600020548460000160149054906101000a900463ffffffff1663ffffffff1603925082600754036007819055506110e68460000160009054906101000a900473ffffffffffffffffffffffffffffffffffffffff1684612e86565b5050505050565b60008073ffffffffffffffffffffffffffffffffffffffff168373ffffffffffffffffffffffffffffffffffffffff161415151561112a57600080fd5b6000808573ffffffffffffffffffffffffffffffffffffffff1673ffffffffffffffffffffffffffffffffffffffff16815260200190815260200160002054821115151561117757600080fd5b600260008573ffffffffffffffffffffffffffffffffffffffff1673ffffffffffffffffffffffffffffffffffffffff16815260200190815260200160002060003373ffffffffffffffffffffffffffffffffffffffff1673ffffffffffffffffffffffffffffffffffffffff16815260200190815260200160002054821115151561120257600080fd5b611253826000808773ffffffffffffffffffffffffffffffffffffffff1673ffffffffffffffffffffffffffffffffffffffff16815260200190815260200160002054612e9590919063ffffffff16565b6000808673ffffffffffffffffffffffffffffffffffffffff1673ffffffffffffffffffffffffffffffffffffffff168152602001908152602001600020819055506112e6826000808673ffffffffffffffffffffffffffffffffffffffff1673ffffffffffffffffffffffffffffffffffffffff16815260200190815260200160002054612eae90919063ffffffff16565b6000808573ffffffffffffffffffffffffffffffffffffffff1673ffffffffffffffffffffffffffffffffffffffff168152602001908152602001600020819055506113b782600260008773ffffffffffffffffffffffffffffffffffffffff1673ffffffffffffffffffffffffffffffffffffffff16815260200190815260200160002060003373ffffffffffffffffffffffffffffffffffffffff1673ffffffffffffffffffffffffffffffffffffffff16815260200190815260200160002054612e9590919063ffffffff16565b600260008673ffffffffffffffffffffffffffffffffffffffff1673ffffffffffffffffffffffffffffffffffffffff16815260200190815260200160002060003373ffffffffffffffffffffffffffffffffffffffff1673ffffffffffffffffffffffffffffffffffffffff168152602001908152602001600020819055508273ffffffffffffffffffffffffffffffffffffffff168473ffffffffffffffffffffffffffffffffffffffff167fddf252ad1be2c89b69c2b068fc378daa952ba7f163c4a11628f55a4df523b3ef846040518082815260200191505060405180910390a3600190509392505050565b6000806000806000866114b8613258565b600b600083815260200190815260200160002061012060405190810160405290816000820160009054906101000a900473ffffffffffffffffffffffffffffffffffffffff1673ffffffffffffffffffffffffffffffffffffffff1673ffffffffffffffffffffffffffffffffffffffff1681526020016001820160009054906101000a900473ffffffffffffffffffffffffffffffffffffffff1673ffffffffffffffffffffffffffffffffffffffff1673ffffffffffffffffffffffffffffffffffffffff1681526020016001820160149054906101000a900463ffffffff1663ffffffff1663ffffffff1681526020016001820160189054906101000a900463ffffffff1663ffffffff1663ffffffff16815260200160018201601c9054906101000a900463ffffffff1663ffffffff1663ffffffff1681526020016002820160009054906101000a900463ffffffff1663ffffffff1663ffffffff1681526020016002820160049054906101000a900463ffffffff1663ffffffff1663ffffffff1681526020016002820160089054906101000a900460ff161515151581526020016002820160099054906101000a900460ff161515151581525050905080610100015115151561168c57600080fd5b600b60008a81526020019081526020016000209650600a60008860010160149054906101000a900463ffffffff1663ffffffff16815260200190815260200160002095508560000160009054906101000a900473ffffffffffffffffffffffffffffffffffffffff1694508660020160049054906101000a900463ffffffff1663ffffffff16880193506117448760000160009054906101000a900473ffffffffffffffffffffffffffffffffffffffff1685612e86565b838760020160009054906101000a900463ffffffff168860010160189054906101000a900463ffffffff160363ffffffff160392506117a78760010160009054906101000a900473ffffffffffffffffffffffffffffffffffffffff1684612e86565b6117cb8588600101601c9054906101000a900463ffffffff1663ffffffff16612e86565b86600101601c9054906101000a900463ffffffff1663ffffffff16600754036007819055508660010160189054906101000a900463ffffffff1663ffffffff166008540360088190555060018760020160096101000a81548160ff02191690831515021790555060018760020160086101000a81548160ff021916908315150217905550505050505050505050565b8063ffffffff166009548110151561187157600080fd5b61187b8383612eca565b505050565b6000600360009054906101000a900473ffffffffffffffffffffffffffffffffffffffff1673ffffffffffffffffffffffffffffffffffffffff163373ffffffffffffffffffffffffffffffffffffffff161415156118de57600080fd5b600360149054906101000a900460ff161515156118fa57600080fd5b61190f82600154612eae90919063ffffffff16565b600181905550611966826000808673ffffffffffffffffffffffffffffffffffffffff1673ffffffffffffffffffffffffffffffffffffffff16815260200190815260200160002054612eae90919063ffffffff16565b6000808573ffffffffffffffffffffffffffffffffffffffff1673ffffffffffffffffffffffffffffffffffffffff168152602001908152602001600020819055508273ffffffffffffffffffffffffffffffffffffffff167f0f6798a560793a54c3bcfe86a93cde1e73087d944c0ea20544137d4121396885836040518082815260200191505060405180910390a28273ffffffffffffffffffffffffffffffffffffffff16600073ffffffffffffffffffffffffffffffffffffffff167fddf252ad1be2c89b69c2b068fc378daa952ba7f163c4a11628f55a4df523b3ef846040518082815260200191505060405180910390a36001905092915050565b600660019054906101000a900473ffffffffffffffffffffffffffffffffffffffff1673ffffffffffffffffffffffffffffffffffffffff163373ffffffffffffffffffffffffffffffffffffffff16141515611ac257600080fd5b600660019054906101000a900473ffffffffffffffffffffffffffffffffffffffff1673ffffffffffffffffffffffffffffffffffffffff16ff5b611b078282612eca565b611b17838263ffffffff166125c8565b50505050565b611b2782826125c8565b505050565b6000600c6000838152602001908152602001600020549050919050565b611b548233836110ed565b505050565b6000600754905090565b600080600260003373ffffffffffffffffffffffffffffffffffffffff1673ffffffffffffffffffffffffffffffffffffffff16815260200190815260200160002060008573ffffffffffffffffffffffffffffffffffffffff1673ffffffffffffffffffffffffffffffffffffffff16815260200190815260200160002054905080831115611c74576000600260003373ffffffffffffffffffffffffffffffffffffffff1673ffffffffffffffffffffffffffffffffffffffff16815260200190815260200160002060008673ffffffffffffffffffffffffffffffffffffffff1673ffffffffffffffffffffffffffffffffffffffff16815260200190815260200160002081905550611d08565b611c878382612e9590919063ffffffff16565b600260003373ffffffffffffffffffffffffffffffffffffffff1673ffffffffffffffffffffffffffffffffffffffff16815260200190815260200160002060008673ffffffffffffffffffffffffffffffffffffffff1673ffffffffffffffffffffffffffffffffffffffff168152602001908152602001600020819055505b8373ffffffffffffffffffffffffffffffffffffffff163373ffffffffffffffffffffffffffffffffffffffff167f8c5be1e5ebec7d5bd14f71427d1e84f3dd0314c0f7b2291e5b200ac8c7c3b925600260003373ffffffffffffffffffffffffffffffffffffffff1673ffffffffffffffffffffffffffffffffffffffff16815260200190815260200160002060008873ffffffffffffffffffffffffffffffffffffffff1673ffffffffffffffffffffffffffffffffffffffff168152602001908152602001600020546040518082815260200191505060405180910390a3600191505092915050565b600082611dff613258565b600b600083815260200190815260200160002061012060405190810160405290816000820160009054906101000a900473ffffffffffffffffffffffffffffffffffffffff1673ffffffffffffffffffffffffffffffffffffffff1673ffffffffffffffffffffffffffffffffffffffff1681526020016001820160009054906101000a900473ffffffffffffffffffffffffffffffffffffffff1673ffffffffffffffffffffffffffffffffffffffff1673ffffffffffffffffffffffffffffffffffffffff1681526020016001820160149054906101000a900463ffffffff1663ffffffff1663ffffffff1681526020016001820160189054906101000a900463ffffffff1663ffffffff1663ffffffff16815260200160018201601c9054906101000a900463ffffffff1663ffffffff1663ffffffff1681526020016002820160009054906101000a900463ffffffff1663ffffffff1663ffffffff1681526020016002820160049054906101000a900463ffffffff1663ffffffff1663ffffffff1681526020016002820160089054906101000a900460ff161515151581526020016002820160099054906101000a900460ff1615151515815250509050806101000151151515611fd357600080fd5b83611fdc613218565b600a6000838152602001908152602001600020606060405190810160405290816000820160009054906101000a900473ffffffffffffffffffffffffffffffffffffffff1673ffffffffffffffffffffffffffffffffffffffff1673ffffffffffffffffffffffffffffffffffffffff1681526020016000820160149054906101000a900463ffffffff1663ffffffff1663ffffffff1681526020016000820160189054906101000a900460ff161515151581525050905080604001511515156120a557600080fd5b600b6000888152602001908152602001600020945060018560020160096101000a81548160ff02191690831515021790555060008560020160086101000a81548160ff0219169083151502179055508460010160189054906101000a900463ffffffff1663ffffffff166008540360088190555084600101601c9054906101000a900463ffffffff1663ffffffff166007540360078190555061219c8560000160009054906101000a900473ffffffffffffffffffffffffffffffffffffffff1686600101601c9054906101000a900463ffffffff168760010160189054906101000a900463ffffffff160163ffffffff16612e86565b50505050505050565b60008060008373ffffffffffffffffffffffffffffffffffffffff1673ffffffffffffffffffffffffffffffffffffffff168152602001908152602001600020549050919050565b600660009054906101000a900460ff1681565b6000600360009054906101000a900473ffffffffffffffffffffffffffffffffffffffff1673ffffffffffffffffffffffffffffffffffffffff163373ffffffffffffffffffffffffffffffffffffffff1614151561225e57600080fd5b600360149054906101000a900460ff1615151561227a57600080fd5b6001600360146101000a81548160ff0219169083151502179055507fae5184fba832cb2b1f702aca6117b8d265eaf03ad33eb133f19dde0f5920fa0860405160405180910390a16001905090565b600360009054906101000a900473ffffffffffffffffffffffffffffffffffffffff1681565b60058054600181600116156101000203166002900480601f0160208091040260200160405190810160405280929190818152602001828054600181600116156101000203166002900480156123845780601f1061235957610100808354040283529160200191612384565b820191906000526020600020905b81548152906001019060200180831161236757829003601f168201915b505050505081565b600080600080600a600086815260200190815260200160002092508260000160149054906101000a900463ffffffff1663ffffffff169150600c60008681526020019081526020016000205490506123ed8183612e9590919063ffffffff16565b9350505050919050565b6000612402826121a5565b9050919050565b84836000600a60008463ffffffff16815260200190815260200160002060000160149054906101000a900463ffffffff1663ffffffff1690508163ffffffff16600c60008563ffffffff1681526020019081526020016000205401811015151561247257600080fd5b8763ffffffff16612481613218565b600a6000838152602001908152602001600020606060405190810160405290816000820160009054906101000a900473ffffffffffffffffffffffffffffffffffffffff1673ffffffffffffffffffffffffffffffffffffffff1673ffffffffffffffffffffffffffffffffffffffff1681526020016000820160149054906101000a900463ffffffff1663ffffffff1663ffffffff1681526020016000820160189054906101000a900460ff1615151515815250509050806040015115151561254a57600080fd5b6125598d8d8c8c8c8c8c612fca565b8763ffffffff16600c60008c63ffffffff1681526020019081526020016000205401600c60008c63ffffffff168152602001908152602001600020819055508863ffffffff16600854016008819055506125b98b8a63ffffffff16612e86565b50505050505050505050505050565b60008073ffffffffffffffffffffffffffffffffffffffff168373ffffffffffffffffffffffffffffffffffffffff161415151561260557600080fd5b6000803373ffffffffffffffffffffffffffffffffffffffff1673ffffffffffffffffffffffffffffffffffffffff16815260200190815260200160002054821115151561265257600080fd5b6126a3826000803373ffffffffffffffffffffffffffffffffffffffff1673ffffffffffffffffffffffffffffffffffffffff16815260200190815260200160002054612e9590919063ffffffff16565b6000803373ffffffffffffffffffffffffffffffffffffffff1673ffffffffffffffffffffffffffffffffffffffff16815260200190815260200160002081905550612736826000808673ffffffffffffffffffffffffffffffffffffffff1673ffffffffffffffffffffffffffffffffffffffff16815260200190815260200160002054612eae90919063ffffffff16565b6000808573ffffffffffffffffffffffffffffffffffffffff1673ffffffffffffffffffffffffffffffffffffffff168152602001908152602001600020819055508273ffffffffffffffffffffffffffffffffffffffff163373ffffffffffffffffffffffffffffffffffffffff167fddf252ad1be2c89b69c2b068fc378daa952ba7f163c4a11628f55a4df523b3ef846040518082815260200191505060405180910390a36001905092915050565b6000600854905090565b6000806000806000806000806000612807613258565b600b60008c815260200190815260200160002061012060405190810160405290816000820160009054906101000a900473ffffffffffffffffffffffffffffffffffffffff1673ffffffffffffffffffffffffffffffffffffffff1673ffffffffffffffffffffffffffffffffffffffff1681526020016001820160009054906101000a900473ffffffffffffffffffffffffffffffffffffffff1673ffffffffffffffffffffffffffffffffffffffff1673ffffffffffffffffffffffffffffffffffffffff1681526020016001820160149054906101000a900463ffffffff1663ffffffff1663ffffffff1681526020016001820160189054906101000a900463ffffffff1663ffffffff1663ffffffff16815260200160018201601c9054906101000a900463ffffffff1663ffffffff1663ffffffff1681526020016002820160009054906101000a900463ffffffff1663ffffffff1663ffffffff1681526020016002820160049054906101000a900463ffffffff1663ffffffff1663ffffffff1681526020016002820160089054906101000a900460ff161515151581526020016002820160099054906101000a900460ff1615151515815250509050806020015181600001518260400151836060015184608001518560a001518660c001518760e00151886101000151995099509950995099509950995099509950509193959799909294969850565b6000612aa882600260003373ffffffffffffffffffffffffffffffffffffffff1673ffffffffffffffffffffffffffffffffffffffff16815260200190815260200160002060008673ffffffffffffffffffffffffffffffffffffffff1673ffffffffffffffffffffffffffffffffffffffff16815260200190815260200160002054612eae90919063ffffffff16565b600260003373ffffffffffffffffffffffffffffffffffffffff1673ffffffffffffffffffffffffffffffffffffffff16815260200190815260200160002060008573ffffffffffffffffffffffffffffffffffffffff1673ffffffffffffffffffffffffffffffffffffffff168152602001908152602001600020819055508273ffffffffffffffffffffffffffffffffffffffff163373ffffffffffffffffffffffffffffffffffffffff167f8c5be1e5ebec7d5bd14f71427d1e84f3dd0314c0f7b2291e5b200ac8c7c3b925600260003373ffffffffffffffffffffffffffffffffffffffff1673ffffffffffffffffffffffffffffffffffffffff16815260200190815260200160002060008773ffffffffffffffffffffffffffffffffffffffff1673ffffffffffffffffffffffffffffffffffffffff168152602001908152602001600020546040518082815260200191505060405180910390a36001905092915050565b6000600260008473ffffffffffffffffffffffffffffffffffffffff1673ffffffffffffffffffffffffffffffffffffffff16815260200190815260200160002060008373ffffffffffffffffffffffffffffffffffffffff1673ffffffffffffffffffffffffffffffffffffffff16815260200190815260200160002054905092915050565b600360009054906101000a900473ffffffffffffffffffffffffffffffffffffffff1673ffffffffffffffffffffffffffffffffffffffff163373ffffffffffffffffffffffffffffffffffffffff16141515612cf657600080fd5b600073ffffffffffffffffffffffffffffffffffffffff168173ffffffffffffffffffffffffffffffffffffffff1614151515612d3257600080fd5b8073ffffffffffffffffffffffffffffffffffffffff16600360009054906101000a900473ffffffffffffffffffffffffffffffffffffffff1673ffffffffffffffffffffffffffffffffffffffff167f8be0079c531659141344cd1fd0a4f28419497f9722a3daafe3b4186f6b6457e060405160405180910390a380600360006101000a81548173ffffffffffffffffffffffffffffffffffffffff021916908373ffffffffffffffffffffffffffffffffffffffff16021790555050565b6000806000600a600085815260200190815260200160002060000160009054906101000a900473ffffffffffffffffffffffffffffffffffffffff16600a600086815260200190815260200160002060000160149054906101000a900463ffffffff16600a600087815260200190815260200160002060000160189054906101000a900460ff169250925092509193909250565b612e9082826125c8565b505050565b6000828211151515612ea357fe5b818303905092915050565b60008183019050828110151515612ec157fe5b80905092915050565b612ed2613218565b6060604051908101604052803373ffffffffffffffffffffffffffffffffffffffff1681526020018363ffffffff16815260200160001515815250905080600a600085815260200190815260200160002060008201518160000160006101000a81548173ffffffffffffffffffffffffffffffffffffffff021916908373ffffffffffffffffffffffffffffffffffffffff16021790555060208201518160000160146101000a81548163ffffffff021916908363ffffffff16021790555060408201518160000160186101000a81548160ff0219169083151502179055509050508163ffffffff1660075401600781905550505050565b612fd2613258565b610120604051908101604052803373ffffffffffffffffffffffffffffffffffffffff1681526020018873ffffffffffffffffffffffffffffffffffffffff1681526020018763ffffffff1681526020018663ffffffff1681526020018563ffffffff1681526020018463ffffffff1681526020018363ffffffff16815260200160001515815260200160001515815250905080600b60008a815260200190815260200160002060008201518160000160006101000a81548173ffffffffffffffffffffffffffffffffffffffff021916908373ffffffffffffffffffffffffffffffffffffffff16021790555060208201518160010160006101000a81548173ffffffffffffffffffffffffffffffffffffffff021916908373ffffffffffffffffffffffffffffffffffffffff16021790555060408201518160010160146101000a81548163ffffffff021916908363ffffffff16021790555060608201518160010160186101000a81548163ffffffff021916908363ffffffff160217905550608082015181600101601c6101000a81548163ffffffff021916908363ffffffff16021790555060a08201518160020160006101000a81548163ffffffff021916908363ffffffff16021790555060c08201518160020160046101000a81548163ffffffff021916908363ffffffff16021790555060e08201518160020160086101000a81548160ff0219169083151502179055506101008201518160020160096101000a81548160ff0219169083151502179055509050505050505050505050565b606060405190810160405280600073ffffffffffffffffffffffffffffffffffffffff168152602001600063ffffffff1681526020016000151581525090565b61012060405190810160405280600073ffffffffffffffffffffffffffffffffffffffff168152602001600073ffffffffffffffffffffffffffffffffffffffff168152602001600063ffffffff168152602001600063ffffffff168152602001600063ffffffff168152602001600063ffffffff168152602001600063ffffffff16815260200160001515815260200160001515815250905600a165627a7a723058207c4fcb4a50c7a79d43c2cf26ae1347aae9d3e50aa15ec7b496e7c13a21a886b80029",
  "source": "pragma solidity ^0.4.24;\nimport \"zeppelin-solidity/contracts/token/ERC20/MintableToken.sol\";\nimport \"zeppelin-solidity/contracts/math/SafeMath.sol\";\n\ncontract BloceryTokenSC is MintableToken {\n\n    string public name = 'alpha-BloceryToken';\n    string public symbol = 'alpha-BLCT';\n    uint8 public decimal = 18;\n\n    using SafeMath for uint;\n    address manager;\n    uint totalDeposit; // manager   \n    uint totalPurchase; // manager   \n\n    //    \n    uint maxDeposit = 5000000; // 1 (1BLCT = 20  )\n\n    //    ( or  )\n    struct depositInfo {\n        address owner;\n        uint32 deposit;\n        bool isCalculated;\n    }\n    mapping (uint => depositInfo) goodsDeposit;  // goodsNo => depositInfo\n\n    //   \n    struct orderInfo {\n        address customer;\n        address producer;\n        uint32 goodsNo;\n        uint32 price;\n        uint32 deposit;\n        uint32 fee;\n        uint32 consumerReward;\n        bool isDelivered; //   \n        bool isCalculated;\n    }\n    mapping (uint => orderInfo) orderInfoMapping; // orderNo => orderInfo\n\n    //       \n    mapping (uint => uint) goodsTotalDeposit; // goodsNo => deposit\n\n    //      - key, account, (penalty, deposit, reward), amount\n    event eventSendEther(address indexed user);\n\n    //              \n    modifier isEnoughDeposit(uint32 _goodsNo, uint32 _deposit) {\n        uint originDeposit = goodsDeposit[_goodsNo].deposit;\n        require(originDeposit >= goodsTotalDeposit[_goodsNo] + _deposit);\n        _;\n    }\n\n    //     \n    modifier isNotCalculatedOrder(uint _orderNo) {\n        orderInfo memory order = orderInfoMapping[_orderNo];\n        require(!order.isCalculated);\n        _;\n    }\n\n    //      \n    modifier isNotCalculatedDeposit(uint _goodsNo) {\n        depositInfo memory deposit = goodsDeposit[_goodsNo];\n        require(!deposit.isCalculated);\n        _;\n    }\n\n    //       maxDeposit   \n    modifier isValidDepositAmount(uint _amount) {\n        require(_amount<maxDeposit);\n        _;\n    }\n\n    constructor() public {\n        manager = msg.sender;\n        mint(msg.sender, 10000000000);\n    }\n\n    function sendEtherToUser(address _receiver) payable public {\n        require(_receiver.balance < 10000000000000000); //  0.01   \n        _receiver.transfer(msg.value);\n        emit eventSendEther(_receiver);\n    }\n\n    // Manager have to send transaction\n    function initUserToken(address _receiver, uint _amount) public {\n        transfer(_receiver, _amount);\n    }\n\n    //  \n    function buyProducerToken(address _manager, uint _amount) public {\n        transferFrom(_manager, msg.sender, _amount);\n    }\n\n    //     \n    function payProducerDeposit(address _manager, uint _goodsNo, uint32 _amount) public {\n        saveDepositInfo(_goodsNo, _amount);\n        transfer(_manager, _amount);\n    }\n\n    //     \n    function payManagerDeposit(uint _goodsNo, uint32 _amount) public isValidDepositAmount(_amount) {\n        saveDepositInfo(_goodsNo, _amount);\n    }\n\n    function saveDepositInfo(uint _goodsNo, uint32 _amount) private {\n        depositInfo memory deposit = depositInfo(msg.sender, _amount, false);\n        goodsDeposit[_goodsNo] = deposit;\n        totalDeposit = totalDeposit + _amount;\n    }\n\n    // customer orders goods\n    function orderGoods(uint _orderNo, address _producer, address _manager, uint32 _goodsNo, uint32 _price, uint32 _deposit, uint32 _fee, uint32 _consumerReward) public isEnoughDeposit(_goodsNo, _deposit) isNotCalculatedDeposit(_goodsNo) {\n        subOrderGoods(_orderNo, _producer, _goodsNo, _price, _deposit, _fee, _consumerReward);\n        goodsTotalDeposit[_goodsNo] = goodsTotalDeposit[_goodsNo] + _deposit;\n        totalPurchase = totalPurchase + _price;\n        sendToken(_manager, _price);\n    }\n\n    function subOrderGoods(uint _orderNo, address _producer, uint32 _goodsNo, uint32 _price, uint32 _deposit, uint32 _fee, uint32 _consumerReward) private {\n        orderInfo memory order = orderInfo(msg.sender, _producer, _goodsNo, _price, _deposit, _fee, _consumerReward, false, false);\n        orderInfoMapping[_orderNo] = order;\n    }\n\n    //   (  )\n    function finishDelivery(uint _orderNo, uint _orderPenalty) public isNotCalculatedOrder(_orderNo) {\n        orderInfo storage order = orderInfoMapping[_orderNo];\n        depositInfo storage deposit = goodsDeposit[order.goodsNo];\n        address depositOwner = deposit.owner;\n\n        // reward customer\n        uint consumerRewardAmount = _orderPenalty + order.consumerReward;\n        sendToken(order.customer, consumerRewardAmount);\n\n        // profit producer\n        uint producerIncome = order.price - order.fee - consumerRewardAmount;\n        sendToken(order.producer, producerIncome);\n\n        // return deposit\n        sendToken(depositOwner, order.deposit);\n        totalDeposit = totalDeposit - order.deposit;\n\n        totalPurchase = totalPurchase - order.price;\n        order.isCalculated = true;\n        order.isDelivered = true;\n    }\n\n    //       \n    function rewardCustomerNotDelivery(uint _orderNo, uint _goodsNo) public isNotCalculatedOrder(_orderNo) isNotCalculatedDeposit(_goodsNo) {\n        orderInfo storage order = orderInfoMapping[_orderNo];\n        order.isCalculated = true;\n        order.isDelivered = false;\n        totalPurchase = totalPurchase - order.price;\n        totalDeposit = totalDeposit - order.deposit;\n        sendToken(order.customer, order.price + order.deposit);\n    }\n\n    //      \n    function returnDepositFinal(uint _goodsNo) public isNotCalculatedDeposit(_goodsNo) {\n        depositInfo storage deposit = goodsDeposit[_goodsNo];\n        deposit.isCalculated = true;\n        uint returnDeposit = deposit.deposit - goodsTotalDeposit[_goodsNo];\n        totalDeposit = totalDeposit - returnDeposit;\n        sendToken(deposit.owner, returnDeposit);\n    }\n\n    function sendToken(address _receiver, uint _value) private {\n        transfer(_receiver, _value);\n    }\n\n    function kill() public {\n        require(msg.sender == manager);\n        selfdestruct(manager);\n    }\n\n    function getManagerTotalDeposit() view public returns(uint) {\n        return totalDeposit;\n    }\n\n    function getManagerTotalPurchase() view public returns(uint) {\n        return totalPurchase;\n    }\n\n    function getGoodsDepositInfo(uint _goodsNo) view public returns(address, uint32, bool) {\n        return (goodsDeposit[_goodsNo].owner, goodsDeposit[_goodsNo].deposit, goodsDeposit[_goodsNo].isCalculated);\n    }\n\n    function getGoodsTotalPaidDeposit(uint _goodsNo) view public returns(uint) {\n        return goodsTotalDeposit[_goodsNo];\n    }\n\n    function getOrderInfo(uint _orderNo) view public returns(address, address, uint32, uint32, uint32, uint32, uint32, bool, bool) {\n        orderInfo memory order = orderInfoMapping[_orderNo];\n        return (order.producer, order.customer, order.goodsNo, order.price, order.deposit, order.fee, order.consumerReward, order.isDelivered, order.isCalculated);\n    }\n\n    function getBalanceOf(address _user) view public returns(uint) {\n        return balanceOf(_user);\n    }\n\n    function getGoodsRemainDeposit(uint _goodsNo) view public returns(uint) {\n        depositInfo storage info = goodsDeposit[_goodsNo];\n        uint tDeposit = info.deposit;\n        uint orderDeposit = goodsTotalDeposit[_goodsNo];\n        return tDeposit.sub(orderDeposit);\n    }\n\n}",
  "sourcePath": "/Users/songahlee/ezfarm/blocery-mvp/truffle/contracts/BloceryTokenSC.sol",
  "compiler": {
    "name": "solc",
    "version": "0.4.25+commit.59dbf8f1.Emscripten.clang"
  },
  "schemaVersion": "2.0.2",
  "updatedAt": "2019-05-09T06:03:29.267Z"
}